:060000000A128A11AF2F65
:100F3C008301A3000430A400D130A500A50BA42F7D
:100F4C00D130A500A50BA82FA40BA22FA30BA02F6B
:100F5C000800013083160313860083128601A0015A
:100F6C00A1018614D130A200A20BBA2FD130A2005D
:100F7C00A20BBE2FD130A200A20BC22FD130A200E7
:100F8C00A20BC62FA730A200A20BCA2FA730A2001B
:100F9C00A20BCE2F861013309E27D130A200A20BAD
:100FAC00D52FD130A200A20BD92F2930A200A20B31
:100FBC00DD2F2930A200A20BE12FA00A0319A10AF0
:100FCC0000302102323003192002031CB72FA0017C
:100FDC00A101861402309E27861012309E27A00A8B
:100FEC000319A10A00302102323003192002031820
:040FFC00B52FEF2FEF
:02400E00323F3F
:00000001FF
